:1000000012C019C018C017C016C015C014C013C044
:10001000C7C211C010C00FC00EC00DC00CC00BC0B5
:100020000AC009C008C011241FBECFE5D4E0DEBF5E
:10003000CDBFB7D2C2C2E4CF6F937F938F938F931C
:10004000872F8CD28F9169E06A9531F070E380FD43
:1000500071E37F938695F8CF69E06A9519F08F91E7
:1000600031D2FBCF8F917F916F9108953031323330
:1000700034353637383941424344454647008F933B
:100080007F936F93EF93FF938F93872F67D28F9117
:10009000782F682F72957F706F70ECE6F0E0E70FB5
:1000A000F11D84910FD2ECE6F0E0E60FF11D849192
:1000B00009D2EF91FF916F917F918F9108958F9366
:1000C00085918D93882309F0FBCF8F9108958F93AD
:1000D0007F936F93AF93BF9377276AE0882329F0CC
:1000E00037D0605D6F937395F8CF772311F480E379
:1000F0008D93772321F07A956F916D93FACF1D92AE
:10010000BF91AF916F917F918F9108958F939F933E
:100110007F936F93AF93BF9377276AE08115910523
:1001200029F02ED0605D6F937395F7CF772311F48C
:1001300080E38D93772321F07A956F916D93FACFB9
:100140001D92BF91AF916F917F919F918F91089573
:100150007F935F937727552748E08894881F771F00
:1001600010F0761718F0761B089401C08894551F7C
:100170004A9509F0F2CF852F672F5F917F910895FF
:100180007F934F935F933F9344275527772730E121
:100190008894881F991F771F10F0761718F0761B28
:1001A000089401C08894441F551F3A9509F0F0CF78
:1001B000CA01672F3F915F914F917F9108958F936F
:1001C0009F93AF93BF93B82F88279927AA2783952A
:1001D000F1F79395E1F7A395AB17C9F7BF91AF91ED
:1001E0009F918F9108958F9322D18823E9F38EE117
:1001F000E6DF8F9108951F921F925EC00F900F90BF
:100200005BC0A7D1ADB7BEB711968D919C91AFEFF2
:10021000B0E07CDFCD0194D14FC09BD18DB79EB7AC
:10022000AFEFB0E073DFCD018BD146C08F919F91CE
:100230007AE0789F402D512D799F500D822DCCD0A2
:1002400080539927192E480F511D5F934F9334C047
:100250008F919F916F917F91860F971F9F938F939F
:100260002BC08F919F916F917F91861B970B9F93CE
:100270008F9322C021C020C01FC07072657373208D
:10028000616E79206B657900EAE7F2E0AFEFB0E0EC
:100290008FEF90E014DF54D18FE594E08DBF9EBFC7
:1002A000AFEFB0E08DB79EB731DF80E457D18FEF6D
:1002B000992746D19927292EBAD02816E9F3282E56
:1002C0002220D1F3E8E6F1E0E20DF11D0994F4CF2C
:1002D000D3CFACCFABCFAACFBBCFA8CFA7CFA6CF22
:1002E000C0CFA4CFA3CFA2CFC7CF88CF9FCF83CF7C
:1002F000C3CF93CF86CFC0CFBFCF8F93882781B98D
:100300008CE080B984E086BF8F9108958F9384EA52
:1003100086BF86B787FFFDCF81B1887F803111F01E
:100320008830D1F78F9108958F9384E986BF86B77F
:1003300084FDFDCF8F9108958F9383B984E886BFA4
:1003400086B787FFFDCF81B1887F8F91089588237D
:1003500011F084EC01C084E886BF86B787FFFDCF2B
:1003600083B108958F93880F806AD0DFE5DF872FF0
:10037000E3DF862FE1DF842FDFDFD6DF8F91089563
:10038000880F806AC3DF8F93D7DF872FD5DF862F53
:10039000D3DFBCDF8F918160CFDF80E0D8DF0895AD
:1003A0008F9384B38F6084BB85B38F6085BB87B325
:1003B0008F7087BB88B3806F88BB8C9A949A8F911B
:1003C0000895203132334134353642373839432AA3
:1003D0003023444546474800FF93EF93F3E0E2ECB7
:1003E000E80FF11D8491EF91FF9108958F937F9312
:1003F0007EEF8A9514F0771FFCCF949A74FF94983F
:1004000085B37F70807F872B85BB7F918F91089507
:1004100088277F9376B37295706F709531F070FD79
:1004200003C083957695FBCF83957F9108957F9345
:100430006F9377276627872FD9DFEADF882329F490
:100440006C5F73957630B9F701C0860F6F917F911D
:1004500008958F939F93882799278395F1F7939514
:10046000E1F79F918F9108958F934BD08078E9F7B2
:100470008F9108958F9387B38F6087BB81B3806E10
:1004800081BB88B3807F88BB82B38F7182BBE1DF81
:1004900088B3807F826088BB959A000000000000CE
:1004A0009598E2DF88E205D0DFDF8CE002D08F9103
:1004B00008958F939F93D8DF97B39F6097BB9698CB
:1004C000979808C08F939F93CFDF97B39F6097BB98
:1004D0009698979A8F9382958F7098B3907F892B77
:1004E00088BB959A00000000000095988F91892B99
:1004F00088BB959A00000000000095989F918F910D
:10050000089587B3807F87BB969A979805C087B375
:10051000807F87BB969A979A9F93959A00000000D8
:10052000000086B395988F70829500000000959A20
:100530000000000096B395989F70892B9F910895B5
:100540008F93DC018D91882311F0BCDFFBCF8F915D
:1005500008958F9381E0ADDF8F9108958F93806828
:10056000A8DF8F9108958F938064A3DF8F91089502
:100570008F936F9382706170862B84609ADF6F9186
:100580008F9108958F936F934F9384706270417031
:10059000862B842B88608DDF4F916F918F9108950A
:1005A000189568DFFDDEA9DE40E060E08FEFEADF4E
:0E05B000D0DF6ADE90E080E00895F894FFCF7F
:00000001FF
