:1000000012C02CC02BC02AC029C028C027C026C0BF
:1000100025C024C023C022C021C020C01FC01EC0D4
:100020001DC01CC01BC011241FBECFE5D4E0DEBF25
:10003000CDBF10E0A0E6B0E0E2E7F5E002C0059039
:100040000D92AA37B107D9F720E0AAE7B0E001C0C6
:100050001D92AD37B207E1F719D289C2D1CF8827F7
:1000600081B98CE080B984E086BF089584EA86BFB8
:1000700086B787FFFDCF81B1887F803111F088304E
:10008000D1F7089584E986BF089583B984E886BFCF
:1000900086B787FFFDCF81B1887F0895882311F04F
:1000A00084EC01C084E886BF86B787FFFDCF83B1AB
:1000B0000895880F806A8F93D9DF8F91E6DF872FAD
:1000C000E4DF862FE2DF842FE0DFDCDF61D10895FB
:1000D000880F806A8F93CADF8F918F93D6DF872F27
:1000E000D4DF862FD2DFC2DF8F918160CEDF80E048
:1000F000D5DF089584B38F6084BB85B38F6085BBE3
:1001000087B38F7087BB88B3806F88BB0895203119
:1001100032334134353642373839432A30234400AC
:10012000F1E0EEE0E80FF11D84910895772791E06A
:1001300085B38F60892785BB00000000000086B36F
:10014000809582958F7021F47395990F9F7081F738
:10015000882379F00F9294E0799F702D0F901124ED
:1001600091E07395A82FA92321F4990F9F7009F0AE
:10017000F8CFA5B3AF60A5BB8111872F089588275D
:1001800099278395F1F79395E1F7089546D0807804
:10019000E9F7089587B38F6087BB81B3806E81BB19
:1001A00088B3807F88BB82B38F7182BBE8DF88B35E
:1001B000807F826088BB959A0000000000009598BF
:1001C000E5DF88E204D0E2DF8CE001D008958F9370
:1001D000DDDF8F9197B39F6097BB9698979808C083
:1001E0008F93D4DF8F9197B39F6097BB9698979A20
:1001F0008F9382958F7098B3907F892B88BB959A47
:1002000000000000000095988F91892B88BB959A7B
:100210000000000000009598089587B3807F87BB99
:10022000969A979805C087B3807F87BB969A979ACE
:10023000959A00000000000086B395988F70829513
:1002400000000000959A0000000096B395989F70FA
:10025000892B0895DC018D91882311F0C1DFFBCF3C
:10026000089581E0B4DF08958068B1DF0895806467
:10027000AEDF089582706170862B8460A8DF0895D8
:10028000847062704170862B842B8860A0DF089593
:100290000F931F93CF93DF93082F8CE3A1DFC7E069
:1002A000D0E010E0C8010C2E02C0959587950A9405
:1002B000E2F780FD0AC080E393DF219798F78EE391
:1002C000DF91CF911F910F918BCF81E3F5CF482F15
:1002D000FC0190E080E05AE02E2F241B261708F046
:1002E00008957191589F9001599F300D1124C901B3
:1002F000C097870F911D77FD9A95EECFEF92FF92F1
:100300001F93CF93DF93CDB7DEB760970FB6F89406
:10031000DEBF0FBECDBF9C0110E08AE0E82EF12CBD
:100320002115310571F480E360960FB6F894DEBFB5
:100330000FBECDBFDF91CF911F91FF90EF9050CFB7
:100340009B01E1E0F0E0EC0FFD1FE10FF11DC901A1
:10035000B701F9D080831F5F2A30310588F711116A
:100360000CC060960FB6F894DEBF0FBECDBFDF9114
:10037000CF911F91FF90EF9008951150E1E0F0E0D0
:10038000EC0FFD1FE10FF11D8081805D29DFE7CFBC
:100390008FE097E20197F1F700C000000895BF9247
:1003A000CF92DF92EF92FF920F931F93CF93DF9341
:1003B000CDB7DEB760970FB6F894DEBF0FBECDBFE6
:1003C000082FB62E51DF4FEF60E08FEF59DFCE01DF
:1003D00001966C0180E1F60111928A95E9F710E02F
:1003E000F12CA4DEE82E8FE097E20197F1F700C030
:1003F0000000FE14B1F38E2D93DEF82E92E48917DF
:1004000091F080ED8F0D8A3038F48F2DE9DEF60102
:10041000E10FF11DF0821F5F1B1103C0802F24DF4D
:1004200010E0FE2CDECF802F1FDFF12CFB101CC054
:10043000802F1ADF612FC6014ADF8C015FDF40E0A9
:1004400060E08FEF1DDFC80160960FB6F894DEBF45
:100450000FBECDBFDF91CF911F910F91FF90EF9015
:10046000DF90CF90BF90089580E2BADEF394DECFA4
:1004700064E084E494DF90937B0080937A00089595
:1004800063E08DE48CDF80937C0008952FEF80E79C
:1004900092E0215080409040E1F700C000007ADEF9
:1004A00029DEDDDD4FEF6FEF8FEFEADEDADE80E48D
:1004B000DBDE80E690E0CEDE88E4D6DE85E690E006
:1004C000C9DE80E0D1DE32DEC82FE2DE80E288DEE7
:1004D0008C2F26DEC82F84DEC13411F4C9DFF1CFA2
:1004E000C43411F4CDDFEDCFCA32A1F460917A00AB
:1004F00070917B0080E0ECDD80937C008DE4B4DEC5
:1005000085E790E0A7DE8DE4AFDE80917C0090E08F
:10051000F5DED7CFC332A9F660917A0070917B00E7
:1005200040917C0080E0C5DD80E09EDE8BE690E0BF
:1005300091DE2FEF82E597E0215080409040E1F777
:1005400000C00000BECFAA1BBB1B51E107C0AA1F01
:10055000BB1FA617B70710F0A61BB70B881F991F64
:100560005A95A9F780959095BC01CD010895F8940E
:02057000FFCFBB
:100572004164723A00446174613A00534156454401
:0A058200202020202020202000006F
:00000001FF
