:1000000012C019C018C017C016C015C014C013C044
:1000100000C211C010C00FC00EC00DC00CC00BC07C
:100020000AC009C008C011241FBECFE5D4E0DEBF5E
:10003000CDBFF0D1FBC1E4CF6F937F938F938F93AC
:10004000872FC5D18F9169E06A9531F070E380FD0B
:1000500071E37F938695F8CF69E06A9519F08F91E7
:100060006AD1FBCF8F917F916F91089530313233F8
:1000700034353637383941424344454647008F933B
:100080007F936F93EF93FF938F93872FA0D18F91DF
:10009000782F682F72957F706F70ECE6F0E0E70FB5
:1000A000F11D849148D1ECE6F0E0E60FF11D84915A
:1000B00042D1EF91FF916F917F918F9108958F932E
:1000C00085918D93882309F0FBCF8F910895089532
:1000D0007F935F9371E05527861768F0861718F0B5
:1000E000770F660FFBCF861710F0861B570F6695AC
:1000F000769509F0F8CF682F852F5F917F9108954D
:10010000707265737320616E79206B657900E0E031
:10011000F1E0AFEFB0E099278FEFD1DF4AD180E275
:1001200051D16AE08F93D4DF762FA9DF8F91839529
:100130000CD0F6CF9927B4D09817E9F343D1982F74
:100140009923C9F3805CF7D0F6CF8F939F93AF9339
:1001500088279927AA278395F1F79395E1F7A39527
:10016000AA30C9F7AF919F918F9108958F938827F7
:1001700081B98CE080B984E086BF8F9108958F9318
:1001800084EA86BF86B787FFFDCF81B1887F803143
:1001900011F08830D1F78F9108958F9384E986BF4D
:1001A00086B784FDFDCF8F9108958F9383B984E83E
:1001B00086BF86B787FFFDCF81B1887F8F91089575
:1001C000882311F084EC01C084E886BF86B787FFDE
:1001D000FDCF83B108958F93880F806AD0DFE5DF6C
:1001E000872FE3DF862FE1DF842FDFDFD6DF8F91DC
:1001F0000895880F806AC3DF8F93D7DF872FD5DFFD
:10020000862FD3DFBCDF8F918160CFDF80E0D8DF26
:1002100008958F9384B38F6084BB85B38F6085BB53
:1002200087B38F7087BB88B3806F88BB8C9A949A92
:100230008F91089520313233413435364237383981
:10024000432A3023444546474800FF93EF93F2E0AA
:10025000E4E3E80FF11D8491EF91FF9108958F93EE
:100260007F937EEF8A9514F0771FFCCF949A74FFEA
:10027000949885B37F70807F872B85BB7F918F910A
:10028000089588277F9376B37295706F709531F0DB
:1002900070FD03C083957695FBCF83957F9108957C
:1002A0007F936F9377276627872FD9DFEADF88232D
:1002B00029F46C5F73957630B9F701C0860F6F91A2
:1002C0007F9108958F939F93882799278395F1F7BE
:1002D0009395E1F79F918F9108958F934BD08078FC
:1002E000E9F78F9108958F9387B38F6087BB81B3B0
:1002F000806E81BB88B3807F88BB82B38F7182BBE5
:10030000E1DF88B3807F826088BB959A000000009F
:1003100000009598E2DF88E205D0DFDF8CE002D0B4
:100320008F9108958F939F93D8DF97B39F6097BB6A
:100330009698979808C08F939F93CFDF97B39F604D
:1003400097BB9698979A8F9382958F7098B3907F6A
:10035000892B88BB959A00000000000095988F912A
:10036000892B88BB959A00000000000095989F910A
:100370008F91089587B3807F87BB969A979805C021
:1003800087B3807F87BB969A979A9F93959A000030
:100390000000000086B395988F70829500000000E1
:1003A000959A0000000096B395989F70892B9F91B5
:1003B00008958F93DC018D91882311F0BCDFFBCF72
:1003C0008F9108958F9381E0ADDF8F9108958F9382
:1003D0008068A8DF8F9108958F938064A3DF8F9149
:1003E00008958F936F9382706170862B84609ADF7B
:1003F0006F918F9108958F936F934F938470627074
:100400004170862B842B88608DDF4F916F918F9187
:100410000895189568DFFDDEA9DE40E060E08FEF0B
:10042000EADFD0DF74DE90E080E00895F894FFCF3B
:00000001FF
