:1000000012C019C018C017C016C015C014C013C044
:1000100005C511C010C00FC00EC00DC00CC00BC074
:100020000AC009C008C011241FBECFE5D4E0DEBF5E
:10003000CDBFF5D400C5E4CF6F937F938F938F939B
:10004000872FCAD48F9169E06A9531F070E380FD03
:1000500071E37F938695F8CF69E06A9519F08F91E7
:100060006FD4FBCF8F917F916F91089530313233F0
:1000700034353637383941424344454647008F933B
:100080007F936F93EF93FF938F93872FA5D48F91D7
:10009000782F682F72957F706F70ECE6F0E0E70FB5
:1000A000F11D84914DD4ECE6F0E0E60FF11D849152
:1000B00047D4EF91FF916F917F918F9108958F9326
:1000C00085918D93882309F0FBCF8F9108958F93AD
:1000D00083D48591882311F033D4FBCF8F91089579
:1000E0008F937F936F93AF93BF9377276AE08823B3
:1000F00029F037D0605D6F937395F8CF772311F4B3
:1001000080E38D93772321F07A956F916D93FACFE9
:100110001D92BF91AF916F917F918F9108958F93B1
:100120009F937F936F93AF93BF9377276AE0811577
:10013000910529F02ED0605D6F937395F7CF7723EB
:1001400011F480E38D93772321F07A956F916D936D
:10015000FACF1D92BF91AF916F917F919F918F9137
:1001600008957F935F937727552748E08894881FE9
:10017000771F10F0761718F0761B089401C088944A
:10018000551F4A9509F0F2CF852F672F5F917F9118
:1001900008957F934F935F933F9344275527772785
:1001A00030E18894881F991F771F10F0761718F098
:1001B000761B089401C08894441F551F3A9509F096
:1001C000F0CFCA01672F3F915F914F917F910895C2
:1001D0008F939F93AF93BF93B82F88279927AA2710
:1001E0008395F1F79395E1F7A395AB17C9F7BF9105
:1001F000AF919F918F9108958F938AE0E9DF55D356
:100200008823D9F38EE18F910895535441434B20B5
:10021000454D5054590000535441434B204F5645CF
:1002200052464C4F57002020202020202020202004
:1002300020202020202000008F93EAE0F2E080E0E0
:1002400046DF8F9184E1C4DF8F93E6E2F2E080E045
:100250003EDF8F9114C28EE194E08DBF9EBF2C01D2
:100260008F93E7E1F2E080E032DF8F9184E1B0DF4D
:100270008F93E6E2F2E080E02ADF8F9100C24D4FDB
:1002800044453A2000008DB79EB7843691058FB75C
:1002900080FDE1CF1F921F92F2C18DB79EB78F5F95
:1002A0008109841595058FB780FFC6CF0F900F90F9
:1002B000E6C18DB79EB78F5F8109841595058FB70D
:1002C00080FFBACF312C83D3ADB7BEB711968D91D5
:1002D0009C91AFEFB0E023DFCD0170D38F93EEE7B9
:1002E000F2E080E4F4DE8F918F937F93862D75E4A6
:1002F000C6DE7F918F9180E223D38DB79EB7AFEF9B
:10030000B0E00DDFCD015AD3BAC1312C60D38DB727
:100310009EB7AFEFB0E003DFCD0150D3B0C18DB7D2
:100320009EB78415950510F01F921F928F919F9193
:100330007AE0789F402D512D799F500D822D8AD2E1
:1003400080539927192E480F511D5F934F9397C1E2
:100350008F919F916F917F91860F971F9F938F939E
:100360008EC18F919F916F917F91681B790B7F93C5
:100370006F9385C18F919F916F917F91869FD001DF
:10038000879FB00D799FB00D8827182EBF93AF932C
:1003900076C16F917F918F919F91FBDE9F938F9399
:1003A0006EC16DC1822D8151682E69C18DB79EB716
:1003B0008F5F8109841595058FB780FF3DCFAF9181
:1003C000BF918DB79EB78F5F8109841595058FB753
:1003D00080FF32CF6F917F91A617B7078FB781FF4C
:1003E0000FC10CC18DB79EB78F5F8109841595052C
:1003F0008FB780FF21CFAF91BF918DB79EB78F5F31
:100400008109841595058FB780FF16CF6F917F9175
:10041000A617B7078FB79FB79695892B817080FF76
:10042000EDC0EEC08DB79EB78F5F8109841595052D
:100430008FB780FF01CFAF91BF918DB79EB78F5F10
:100440008109841595058FB780FFF6CE6F917F9156
:10045000A617B7078FB780FDD1C0D2C08DB79EB7A2
:100460008F5F8109841595058FB780FFE5CEAF9129
:10047000BF918DB79EB78F5F8109841595058FB7A2
:1004800080FFDACE6F917F91A617B7078FB781FFF4
:10049000B5C0B6C08DB79EB78F5F8109841595052D
:1004A0008FB780FFC9CEAF91BF918DB79EB78F5FD9
:1004B0008109841595058FB780FFBECE6F917F911E
:1004C000A617B7078FB79FB79695892B817080FFC6
:1004D00097C094C08DB79EB78F5F8109841595052D
:1004E0008FB780FFA9CEAF91BF918DB79EB78F5FB9
:1004F0008109841595058FB780FF9ECE6F917F91FE
:10050000A617B7078FB780FF79C07AC08DB79EB79F
:100510008F5F8109841595058FB780FF8DCEAF91D0
:10052000BF918DB79EB78F5F8109841595058FB7F1
:1005300080FF82CE6F917F91A115B10519F0AFEFC9
:10054000BFEF02C0A0E0B0E0A623B723662777275D
:100550005FCF8DB79EB78F5F8109841595058FB7E3
:1005600080FF6ACEAF91BF918DB79EB78F5F810933
:10057000841595058FB780FF5FCE6F917F91A62B75
:10058000B72B6627772744CF8DB79EB78F5F81093A
:10059000841595058FB780FF4FCEAF91BF918DB772
:1005A0009EB78F5F8109841595058FB780FF44CE74
:1005B0006F917F91A115B10519F0AFEFBFEF02C0A8
:1005C000A0E0B0E06115710519F06FEF7FEF02C098
:1005D00060E070E0A627B7276627772719CF8DB789
:1005E0009EB78F5F8109841595058FB780FF24CE54
:1005F0008F919F918115910509F002C00FEF01C005
:1006000000E00F930F933BC0312C8FE58F937F93C6
:10061000882F71E434DD7F918F918FE38F937F93E7
:10062000882F74E42CDD7F918F9180E08F937F93EE
:10063000882F78E424DD7F918F9121C070726573DB
:100640007320616E79206B6579008F93ECE3F6E09F
:1006500081E03DDD8F918EE194E08DBF9EBF2C0146
:10066000AFEFB0E08DB79EB75ADD80E4B5D18FEF24
:100670009927A4D19927292E392E192E692E3114A4
:1006800011F0312C16CE82E0A3DD0FD12816B9F37C
:10069000282E2220A1F380E0681619F4E7E6F3E0A3
:1006A00011C081E0681619F4ECE7F3E00BC082E0BA
:1006B000681619F4E1E9F3E005C083E06816F9F67D
:1006C000E6EAF3E0E20DF11D33940994D8CF69CE48
:1006D00026CE25CE24CE3CCE22CE21CE20CE41CE5B
:1006E0001ECE1DCE1CCE46CED8CD19CECCCD51CEF1
:1006F00059CE58CE57CE56CE54CE58CE73CE92CE7B
:1007000005CFACCEC7CEE6CE24CF4BCE4ACE49CE17
:100710003BCFC3CD46CEB7CD62CF44CE43CE42CE43
:1007200041CE3FCEF2CDC5CD3CCE3BCE3ACE39CE3A
:1007300038CE37CE36CE35CE34CE33CEAECD31CE2A
:10074000A2CD2FCE2FCE2ECE2DCE2CCE2ACEB1CDD9
:10075000DCCD27CE26CE25CE24CE23CE22CE21CE52
:1007600020CE1FCE1ECE99CD4FCF8DCD1ACE1ACE14
:1007700019CE18CE17CE8F93882781B98CE080B917
:1007800084E086BF8F9108958F9384EA86BF86B7F1
:1007900087FFFDCF81B1887F803111F08830D1F79C
:1007A0008F9108958F9384E986BF86B784FDFDCF2E
:1007B0008F9108958F9383B984E886BF86B787FFAA
:1007C000FDCF81B1887F8F910895882311F084EC4B
:1007D00001C084E886BF86B787FFFDCF83B1089547
:1007E0008F93880F806AD0DFE5DF872FE3DF862FC6
:1007F000E1DF842FDFDFD6DF8F910895880F806AD5
:10080000C3DF8F93D7DF872FD5DF862FD3DFBCDF02
:100810008F918160CFDF80E0D8DF08958F9384B31C
:100820008F6084BB85B38F6085BB87B38F7087BBB8
:1008300088B3806F88BB8C9A949A8F9108952031E9
:1008400032334134353642373839432A3023444530
:1008500046474800FF93EF93F8E0EEE3E80FF11D01
:100860008491EF91FF9108958F937F937EEF8A9506
:1008700014F0771FFCCF949A74FF949885B37F701F
:10088000807F872B85BB7F918F91089588277F93E9
:1008900076B37295706F709531F070FD03C08395DB
:1008A0007695FBCF83957F9108957F936F937727FC
:1008B0006627872FD9DFEADF882329F46C5F7395D9
:1008C0007630B9F701C0860F6F917F9108958F93AD
:1008D0009F93882799278395F1F79395E1F79F9147
:1008E0008F9108958F934BD08078E9F78F91089579
:1008F0008F9387B38F6087BB81B3806E81BB88B3D2
:10090000807F88BB82B38F7182BBE1DF88B3807F39
:10091000826088BB959A0000000000009598E2DF95
:1009200088E205D0DFDF8CE002D08F9108958F93AD
:100930009F93D8DF97B39F6097BB9698979808C00E
:100940008F939F93CFDF97B39F6097BB9698979AAB
:100950008F9382958F7098B3907F892B88BB959ADF
:1009600000000000000095988F91892B88BB959A14
:1009700000000000000095989F918F91089587B323
:10098000807F87BB969A979805C087B3807F87BB87
:10099000969A979A9F93959A00000000000086B35C
:1009A00095988F70829500000000959A00000000D5
:1009B00096B395989F70892B9F9108958F93DC0132
:1009C0008D91882311F0BCDFFBCF8F9108958F9319
:1009D00081E0ADDF8F9108958F938068A8DF8F91BC
:1009E00008958F938064A3DF8F9108958F936F9301
:1009F00082706170862B84609ADF6F918F91089569
:100A00008F936F934F93847062704170862B842B09
:100A100088608DDF4F916F918F910895189568DFF1
:100A2000FDDEA9DE40E060E08FEFEADFD0DF0DDE23
:0A0A300090E080E00895F894FFCFF5
:00000001FF
